:020000040800F2
:10000000C81A00204D0400085502000857020008D5
:100010005B0200085F0200086302000800000000A5
:10002000000000000000000000000000670200085F
:1000300069020008000000006B0200086D02000861
:1000400067040008670400086704000867040008E4
:1000500067040008670400086704000867040008D4
:1000600067040008670400086704000867040008C4
:1000700067040008670400086704000867040008B4
:1000800067040008670400086704000867040008A4
:100090006704000867040008670400086704000894
:1000A0006704000867040008670400086704000884
:1000B0006704000867040008670400086704000874
:1000C0006704000867040008670400086704000864
:1000D0006704000867040008670400086704000854
:1000E0006704000867040008670400086704000844
:1000F0006704000867040008670400086704000834
:100100006704000867040008670400086704000823
:100110006704000867040008670400086704000813
:100120006704000867040008670400086704000803
:10013000DFF80CD004F0A4FA00480047450100089D
:10014000C81A0020482003F0FBF801F0AFFC03F0D0
:1001500099FC22A004F046FB01F0DFFC03F072F8EA
:1001600027A004F03FFB80212B4800F050FD10B188
:1001700001F000FC01E001F0B8FD2848C27A817A64
:1001800027A004F02FFB254890F8320018B9012071
:10019000224981F8320001F0D9FC26A004F022FBAC
:1001A0001AE01E4890F8300010B902F006FB01E09A
:1001B00002F09BFC2448007870B100BF234800681F
:1001C00000F4E06022490843001D20490860BFF3A5
:1001D000408F00BF00BFFEE7E3E700005735353032
:1001E000302045564220696E697469616C697A6194
:1001F00074696F6E206F7665722E0D0A0000000024
:10020000573535303020696E697469616C697A657B
:1002100064210D0A00000000000C0140860400204B
:100220004669726D776172652076657225642E2548
:10023000640D0A004E6574776F726B2069732072CB
:10024000656164792E0D0A00000000200CED00E0CD
:100250000000FA05704700BFFEE700BFFEE700BFE1
:10026000FEE700BFFEE77047704770477047000029
:100270000CB50020019000906B48006840F480307D
:100280006949086000BF6848006800F400300090C9
:100290000198401C0190009818B90198B0F5A06F22
:1002A000F1D16148006810F4003F02D001200090B5
:1002B00001E0002000900098012842D15B480068CE
:1002C00040F01000594908600846006820F003001B
:1002D00008600846006840F0020008605248406824
:1002E000514948600846406848600846406840F404
:1002F000806048600846406820F47C1048600846EA
:10030000406840F4E81048600846006840F080709B
:10031000086000BF4448006810F0007FFAD04248EF
:10032000406820F00300404948600846406840F0BB
:100330000200486000BF3C48406800F00C000828FC
:10034000F9D10CBD10B5FFF793FF10BD10B53648BD
:10035000006840F0010034490860084640683449AC
:1003600008403149486008460068324908402E4933
:1003700008600846006820F480200860084640684D
:1003800020F4FE0048604FF41F008860FFF7DAFF9A
:100390004FF000602849086010BD10B50021002012
:1003A0000022214B5B6803F00C0121B1042906D027
:1003B000082928D107E0214B214C236027E01F4B5F
:1003C0001F4C236023E0184B5B6803F47010164B3E
:1003D0005B6803F48032022303EB904022B9194B8F
:1003E0004343174C23600DE00F4B5B6813F4003F51
:1003F00004D0144B4343124C236003E00F4B4343A0
:100400000F4C236003E00D4B0D4C236000BF00BF79
:10041000054B5B68C3F303130B4CE15C084B1B6893
:10042000CB40074C236010BD00100240002002406A
:100430000000FFF8FFFFF6FE08ED00E000127A0072
:100440000400002000093D00080000200648804705
:1004500006480047FEE7FEE7FEE7FEE7FEE7FEE7A9
:10046000FEE7FEE7FEE7FEE74D0300083101000866
:1004700001460020FE4A106800F038000843106072
:100480007047FB49096821F00801F94A11601146DB
:100490000968014311607047F549096821F01001AE
:1004A000F34A116011460968014311607047F14831
:1004B000EF494860F04848607047EE48EC494860B2
:1004C000ED4848607047EA48006940F08000E8491C
:1004D00008617047E648006940F08000E44908611F
:1004E00070470420E249C96811F0010F01D00120D2
:1004F0000EE0DF49C96811F0040F01D0022007E0C7
:10050000DB49C96811F0100F01D0032000E004207E
:10051000704700B502460423FFF7E3FF034603E0FC
:10052000FFF7DFFF0346521E012B01D1002AF7D14E
:1005300002B90523184600BD30B5044604254FF422
:100540003020FFF7E6FF0546042D17D1C8480069A3
:1005500040F00200C649086108464461006940F065
:10056000400008614FF43020FFF7D3FF0546C04834
:10057000006941F6FD710840BD490861284630BD5B
:1005800010B504244FF43020FFF7C3FF0446042CB9
:1005900016D1B748006940F00400B5490861084623
:1005A000006940F0400008614FF43020FFF7B1FFD0
:1005B0000446AF48006941F6FB710840AC49086148
:1005C000204610BD00B502460423FFF78AFF03460C
:1005D00003E0FFF786FF0346521E012B01D1002ADC
:1005E000F7D102B90523184600BD10B504244FF415
:1005F0003020FFF7E7FF0446042C16D19C48006921
:1006000040F004009A4908610846006940F0400043
:1006100008614FF43020FFF7D5FF04469448006985
:1006200041F6FB71084092490861204610BD002048
:100630008F49C96911F0020F01D0012000E00020AC
:10064000704730B5A5250424FFF7F1FF00B1002560
:100650004FF43020FFF75DFF0446042C3AD1854863
:1006600083498860844888600846006940F020001B
:1006700008610846006940F0400008614FF43020EE
:10068000FFF747FF0446042C1BD17948006941F667
:10069000DF710840764908610846006940F01000A3
:1006A000086176480580E002FFF733FF0446052C19
:1006B00010D06F48006941F6EF7108406C4908613D
:1006C00008E0052C06D06A48006941F6EF71084041
:1006D00067490861204630BD78B506460C460425BA
:1006E00000200090E802FFF714FF0546042D24D1F6
:1006F0005F48006940F001005D4908613480E8020C
:10070000FFF707FF0546042D10D1B01C0090200C08
:1007100000990880E802FFF7FCFE0546544800698E
:1007200041F6FE7108405249086106E050480069F0
:1007300041F6FE7108404E490861284678BD70B503
:1007400004460D460426F002FFF7E3FE0646042E9B
:1007500011D14748006940F00100454908612580F2
:10076000F002FFF7D6FE06464148006941F6FE71E9
:1007700008403F490861304670BD70B505460E46D9
:100780000424E002FFF7C5FE0446042C17D13948C3
:1007900037498860384888600846006940F0100092
:1007A00008612E80E002FFF7B4FE0446052C06D057
:1007B0002F48006941F6EF7108402D490861204635
:1007C00070BD2DE9F04304464FF6FF763746B0463C
:1007D000B1460425E443E6B2C4F30727C4F307484F
:1007E0004FEA1469E802FFF794FE0546042D49D14B
:1007F00020481F498860204888600846006940F00A
:1008000010000861FF2E06D01C4808300680E80260
:10081000FFF77FFE0546042D08D1FF2F06D01748AD
:100820000A300780E802FFF774FE0546042D0AD15E
:10083000B8F1FF0F07D011480C30A0F80080E80293
:10084000FFF767FE0546042D0AD1B9F1FF0F07D067
:100850000A480E30A0F80090E802FFF75AFE05465D
:10086000052D0FD00248006941F6EF71084007E0FE
:100870000020024023016745AB89EFCD00F8FF1F40
:10088000664908612846BDE8F08330B50546042472
:100890004FF43020FFF73DFE0446042C41D1604860
:1008A0005E4988605F4888600846006940F0200023
:1008B00008610846006940F0400008614FF43020AC
:1008C000FFF727FE0446042C22D15448006941F664
:1008D000DF710840514908610846006940F0100086
:1008E00008611DB100205049088002E0A5204E4952
:1008F00008804FF43020FFF70CFE0446052C10D082
:100900004648006941F6EF7108404449086108E033
:10091000052C06D04148006941F6DF7108403F4987
:100920000861204630BDF0B505460E461746042442
:100930003B483A4988603B488860E002FFF7E9FDA0
:100940000446042C19D13548006940F010003349A1
:10095000086147F0F800304328433349891C088078
:10096000E002FFF7D6FD0446052C06D02B480069AF
:1009700041F6EF710840294908612046F0BD27483B
:10098000C069800870472548006A704700202349E5
:10099000096811F0200F01D0012000E0002070470D
:1009A00029B11E4A126902431C4B1A6104E01B4A1A
:1009B00012698243194B1A617047014600200129D0
:1009C00008D1164AD26912F0010F01D0012008E0C7
:1009D000002006E0114AD2680A4201D0012000E05E
:1009E000002070470D49C860704704200B49C96852
:1009F00011F0010F01D001200EE00849C96811F083
:100A0000040F01D0022007E00449C96811F0100F5B
:100A100001D0032000E004207047000000200240C5
:100A200023016745AB89EFCD00F8FF1F10B50446E1
:100A3000CA48844208D10121042000F027FB00218C
:100A4000042000F023FB46E0C548844208D1012180
:100A5000082000F01BFB0021082000F017FB3AE003
:100A6000C048844208D10121102000F00FFB002172
:100A7000102000F00BFB2EE0BB48844208D101217E
:100A8000202000F003FB0021202000F0FFFA22E0EC
:100A9000B648844208D10121402000F0F7FA002135
:100AA000402000F0F3FA16E0B148844208D1012159
:100AB000802000F0EBFA0021802000F0E7FA0AE045
:100AC000AC48844207D10121801500F0DFFA0021F3
:100AD000A01500F0DBFA10BD10B50121084600F0AA
:100AE000D5FA0021012000F0D1FA10BD2DE9F04126
:100AF000024600250026002000230024002791F84C
:100B000003C00CF00F0591F803C01CF0100F03D0C8
:100B100091F802C04CEA050591F800C0BCF1000F45
:100B200031D0146800202BE04FF0010C0CFA00F3D8
:100B3000B1F800C00CEA03069E4220D183004FF0BA
:100B40000F0C0CFA03F7BC4305FA03FC4CEA04044F
:100B500091F803C0BCF1280F06D14FF0010C0CFA3C
:100B600000FCC2F814C00AE091F803C0BCF1480FC1
:100B700005D14FF0010C0CFA00FCC2F810C0401C6B
:100B80000828D1D31460B1F800C0BCF1FF0F34DDE8
:100B9000546800202EE000F1080C4FF0010808FA1C
:100BA0000CF3B1F800C00CEA03069E4221D1830089
:100BB0004FF00F0C0CFA03F7BC4305FA03FC4CEAA8
:100BC000040491F803C0BCF1280F05D100F1080C12
:100BD00008FA0CF8C2F8148091F803C0BCF1480F71
:100BE00007D100F1080C4FF0010808FA0CF8C2F820
:100BF0001080401C0828CED35460BDE8F0814FF629
:100C0000FF710180022181700421C170704702468A
:100C1000002093680B4201D0012000E000207047C3
:100C20000146886880B2704702460020D3680B42B4
:100C300001D0012000E0002070470146C86880B262
:100C4000704701617047416170470AB1016100E07E
:100C500041617047C16070474FF480320A4382613E
:100C60008161826182698269704702460020424B3D
:100C700018684FF68073184040EA021008433E4B54
:100C8000186070473D49C8617047F0B50A460023B7
:100C900000240021002500F00046B6F1004F02D1EB
:100CA000354EF16901E0344E7168C0F3034583B2FB
:100CB00000F44016B6F5401F08D121F070612E4EA9
:100CC000766826F070662C4F7E6012E000F4801685
:100CD000B6F5801F06D1032606FA05F4A14341F0BC
:100CE000706106E0460D360103FA06F6B14341F0A5
:100CF000706122B1460D360103FA06F6314300F069
:100D00000046B6F1004F02D11B4EF16101E01A4ED0
:100D10007160F0BD30B500228B071C0F0F2303FA62
:100D200004F2154B08338C1053F824309343124CC3
:100D300008348D1044F8253023468C1053F82430A5
:100D40008C07240F00FA04F423430B4C08348D1055
:100D500044F8253030BD0A4908607047000801405A
:100D6000000C014000100140001401400018014037
:100D7000001C014000200140000001400000204212
:100D8000DC002042DD48006840F00100DB490860DB
:100D900008464068DA490840D84948600846006873
:100DA000D8490840D54908600846006820F48020EA
:100DB00008600846406820F4FE0048604FF41F00B9
:100DC00088607047CD49096821F48031CB4A1160B1
:100DD0001146096821F480211160B0F5803F03D0ED
:100DE000B0F5802F0ED106E0C449096841F4803186
:100DF000C24A116007E0C149096841F4A021BF4A15
:100E0000116000E000BF00BF704710B5014600222E
:100E1000002300204A11012A02D1B84C236806E0C1
:100E2000022A02D1B54C236A01E0B44C636A01F096
:100E30001F02012494401C4201D0012000E0002048
:100E400010BD38B5002000900024002500BF3120DF
:100E5000FFF7DBFF05460098401C00900098B0F5B6
:100E6000A06F01D0002DF2D03120FFF7CEFF08B1E6
:100E7000012400E00024204638BD014600209F4A9E
:100E8000106820F0F80040EAC100106070479E49E9
:100E90000860704702460020984B586820F47C1088
:100EA00042EA01031843954B58607047964908661B
:100EB000704701460020914A506820F00300084323
:100EC000506070478D48406800F00C007047014644
:100ED00000208A4A506820F0F000084350607047B4
:100EE00001460020854A506820F4E06008435060C5
:100EF000704701460020814A506820F4605040EA63
:100F0000C1005060704729B17C4A527A02437B4B42
:100F10005A7204E0794A527A8243784B5A72704787
:100F20007A490860704701460020744A506820F4EE
:100F300040400843506070470021754A11706F4A65
:100F400082F82010012802D0042808D103E00121F2
:100F50006F4A117004E005216D4A117000E000BF76
:100F600000BF70476B49086070476449096A0143D4
:100F7000624A11627047674944390860704730B56A
:100F800000210022002400235C4D6D6805F00C0157
:100F900021B1042905D0082923D105E05E4D056063
:100FA00022E05D4D05601FE0544D6D6805F4701240
:100FB000524D6D6805F48034022505EB92421CB950
:100FC000564D554305600BE04C4D6D6815F4003FE0
:100FD00003D0524D5543056002E04F4D5543056027
:100FE00002E04D4D056000BF00BF444D6D6805F047
:100FF000F00109094A4D6B5C0568DD4045603F4DD5
:101000006D6805F4E061090A454D6B5C4568DD409B
:1010100085603A4D6D6805F46051C90A404D6B5CBE
:101020004568DD40C560354D6D6805F44041890B6C
:101030003C4D6B5CC568B5FBF3F5056130BD29B16E
:101040002E4A526902432D4B5A6104E02B4A5269E1
:1010500082432A4B5A61704729B1284A9269024358
:10106000264B9A6104E0254A92698243234B9A6198
:10107000704729B1214AD2690243204BDA6104E06A
:101080001E4AD26982431D4BDA61704729B11B4A5F
:10109000D2680243194BDA6004E0184AD2688243EE
:1010A000164BDA60704729B1144A12690243134B98
:1010B0001A6104E0114A12698243104B1A617047A9
:1010C00014494039086070470F49C86470470B499C
:1010D000C87170470948406A40F08070074948620B
:1010E000704701460020054A92680A4201D001205B
:1010F00000E00020704701498872704700100240EC
:101100000000FFF8FFFFF6FE00004242D800424216
:10111000201002408004424200127A0000093D0083
:10112000180000202800002010B50446BE48844264
:1011300008D101218014FFF7A9FF0021A014FFF7B7
:10114000A5FF16E0B948844208D101210014FFF739
:10115000AAFF00212014FFF7A6FF0AE0B44884424A
:1011600007D10121C013FFF79EFF0021E013FFF715
:101170009AFF10BD10B50022028802F441520B887C
:101180004C8823438C882343CC8823430C892343F6
:101190004C8923438C892343CC8923431A430280FF
:1011A000838B4FF2FF74234083830B8A038210BD2D
:1011B0002DE9F04F85B005460C464FF00009022797
:1011C0004FF000084FF0010B0026B246A88B4FF2FB
:1011D00040010840A88302202884B5F81C90A0682C
:1011E000022801D100BF38E0A08810B94FF0010BF0
:1011F00001E04FF0020B8D48854200D100E000BFB6
:101200006846FFF7BCFEDDF800A0E088B0F5007F7F
:101210000AD14FEA1A2000EB80004000A168B0FB21
:10122000F1F0401D86B20BE04FEA4B10BAFBF0F034
:1012300000EB80004000A168B0FBF1F0401D86B2D9
:101240000A20B6FBF0F606F00108A6EB0800C0F392
:101250004F074FF6FF7000EA0828022F01DBFF2F2F
:1012600002DD02274FF00008E08840EA080038431A
:101270002884A088A18908436188084321880843FD
:1012800040F4006040EA0909A5F81C9005B0BDE8EB
:10129000F08F0021018041808180C18001814181E6
:1012A0008181C18107210182704700210180418035
:1012B0008180C1800221816000218181704721B13C
:1012C000028842F04002028004E002884FF6BF73B9
:1012D0001A400280704721B1828B42F4806282837F
:1012E00004E0828B4FF6FF331A408283704730B59B
:1012F000002400230C110125A540ABB21AB185884A
:101300001D43858002E085889D43858030BD1AB1EC
:1013100083880B43838002E083888B4383807047FC
:1013200081817047014688897047A1F57E42FF3A66
:1013300004D0028842F48072028004E002884FF6F2
:10134000FF631A400280704721B1828842F0040294
:10135000828004E082884FF6FB731A4082807047D7
:1013600002884FF2FF731A40028002880A4302800B
:101370007047018841F480510180704721B1028893
:1013800042F40052028004E002884DF6FF731A40D6
:101390000280704702460020012901D0108B00E036
:1013A000908A70470146088A7047B1F5804F04D192
:1013B000028842F48042028004E002884BF6FF7308
:1013C0001A40028070470246002013890B4201D068
:1013D000012000E000207047CA4302817047F0B549
:1013E0000246002000240023002501F00F070126FB
:1013F000BE40B4B20B1101269E40B3B2968806EAF5
:1014000003051689264202D00DB1012000E000201C
:10141000F0BD10B5002201F00F040123A3409AB2E1
:10142000D343038110BD000000300140003800406C
:10143000003C004010B50446FB48844209D101211C
:101440008803FFF723FE00214FF48040FFF71EFEC4
:1014500032E0F648844209D101214804FFF723FE17
:1014600000214FF40030FFF71EFE25E0F0488442D3
:1014700009D101218804FFF716FE00214FF48020D6
:10148000FFF711FE18E0EB48844209D10121C8049E
:10149000FFF709FE00214FF40020FFF704FE0BE0E8
:1014A000E548844208D101210805FFF7FCFD002131
:1014B0004FF48010FFF7F7FD10BD2DE9F04786B01F
:1014C00005460E460024A24600BFA1460027B0896B
:1014D00000B100BF2F462C8A4CF6FF700440F08804
:1014E00004432C82AC894EF6F3100440B088318955
:1014F0000843718908430443AC81AC8A4FF6FF402E
:101500000440B0890443AC8201A8FFF738FDC64807
:10151000874202D1DDF810A001E0DDF80CA0A88917
:1015200010F4004F08D00AEBCA0000EB0A10316833
:101530004900B0FBF1F807E00AEBCA0000EB0A1023
:1015400031688900B0FBF1F86420B8FBF0F00401C9
:101550002009642101FB1089A88910F4004F08D0EC
:10156000322000EBC900B0FBF1F000F007000443AB
:1015700008E0322000EB09106421B0FBF1F000F02C
:101580000F0004432C8106B0BDE8F0874FF41651DC
:10159000016000218180C18001810C2141810021F5
:1015A0008181704710B502460020108A4FF2FF0378
:1015B00018400B884C8823438C882343CC882343D2
:1015C0001843108210BD0021018041808180C180BC
:1015D000704721B1828942F40052828104E08289FD
:1015E0004DF6FF731A4082817047F0B50346002420
:1015F000002600250020A1F510676A3F00D100BF3A
:101600001846C1F3421401F01F06012707FA06F538
:10161000012C01D10C3004E0022C01D1103000E08B
:1016200014301AB107682F43076002E00768AF4320
:101630000760F0BD1AB1838A0B43838202E0838A7C
:101640008B4383827047028A4FF6F0731A400282FE
:10165000028A0A430282704782894FF2FF731A405E
:10166000828182890A438281704721B1828942F056
:101670000202828104E082894FF6FD731A40828162
:101680007047028A4FF6DF731A400282028A0A43C9
:101690000282704721B1028A42F48042028204E051
:1016A000028A4BF6FF731A4002827047C1F30802A8
:1016B0008280704701468888C0F30800704781899E
:1016C00041F0010181817047028BD2B20283028B0B
:1016D00042EA012202837047028B02F47F420283B6
:1016E000028B0A430283704721B1828A42F02002B2
:1016F000828204E0828A4FF6DF731A40828270474A
:1017000021B1828A42F01002828204E0828A4FF67E
:10171000EF731A408282704721B1828A42F0080238
:10172000828204E0828A4FF6F7731A408282704701
:1017300021B1828942F40042828103E08289C2F3AE
:101740000E028281704721B1828A42F40062828255
:1017500004E0828A4FF2FF731A4082827047828AC5
:101760004FF6FB731A408282828A0A438282704754
:1017700021B1828A42F00202828204E0828A4FF61C
:10178000FD731A408282704702460020B1F5007F47
:1017900000D100BF13880B4201D0012000E00020DF
:1017A000704701F40072B2F5007F00D100BFCA4358
:1017B0000280704770B502460024002300250020F7
:1017C000A1F510666A3E00D100BFC1F3421501F0D9
:1017D0001F03012606FA03F3012D02D19689334037
:1017E00006E0022D02D1168A334001E0968A33408A
:1017F0000C12012606FA04F41688344013B10CB119
:10180000012000E0002070BD10B500220023A1F5EA
:1018100010646A3C00D100BF0A1201249440A3B2B4
:10182000DC43048010BD000000380140004400404B
:1018300000480040004C004000500040014608882D
:1018400070472DE9F04105460E461746002407E093
:1018500036F814102846FEF772FFAD1C601C84B2E7
:10186000BC42F5DBBDE8F08130B503460C461546B9
:10187000002207E01846FFF7E1FF24F812009B1C46
:10188000501C82B2AA42F5DB30BD2DE9F05F8046E4
:101890008A4617468148804502D38148804501D356
:1018A000BDE8F09FFEF703FE7C48A8EB000B4FEA73
:1018B0009B25CBF34809C9F50074A74200DC3C46E0
:1018C0004AE0764901EB85208A147649FFF7CCFF80
:1018D00000260BE009EB0600724931F81000A0F574
:1018E0007F41FF3900D003E0701C86B2A642F1DBD5
:1018F00000BFA64219DA694901EB8520FEF71CFEFC
:10190000002608E03AF8160006EB0901654A22F8BD
:101910001100701C86B2A642F4DB604901EB852001
:101920008A146049FFF78DFF04E022465146404685
:10193000FFF787FFA74200D10FE06D1C4FF00009B1
:101940000AEB440AA044381B87B2B7F5007F02DDDA
:101950004FF4007400E03C46B3E700BFFEF7B3FD70
:1019600000BF9DE713B50446012201A92046FFF7F9
:101970008CFF1CBD10B54A204B490870542048709C
:10198000582088704420C8704A2008715421464865
:101990004171582181714421C171172101720721C0
:1019A000417201204049887200213F48C172C02025
:1019B0003D490873A8213C484173012181736F217F
:1019C000C173FF2038490874FF213748417481747E
:1019D0000021C174C02034490875A82132484175DE
:1019E00001218175C17508202F49087608212E48EC
:1019F00041768176C17643202B49087701212A4818
:101A00004177042181770121C17780F8201080F887
:101A100021101D20244981F82200AE21224880F89F
:101A20002310E02180F82410802180F82510252043
:101A30001D4981F82600BC211B4880F82710012091
:101A4000194981F82800B121174880F82910012090
:101A5000154981F82A000221134880F82B10032130
:101A600080F82C10042180F82D10052180F82E100C
:101A7000062180F82F1000200B4981F8300081F8F2
:101A80003100012081F832000020A1F8330081F8F4
:101A9000350032220148FFF7F8FE10BD18F00108AA
:101AA00018F00308540000208604002008B5012126
:101AB0001D20FFF7D1FA0F20ADF8000003208DF8AC
:101AC000020010208DF8030069469448FFF70EF8D5
:101AD0004FF40070ADF8000003208DF802001020D4
:101AE0008DF8030069468E48FFF700F84FF4007147
:101AF0008B48FFF7A6F88020ADF8000003208DF892
:101B0000020048208DF8030069468548FEF7EEFF85
:101B100080218348FFF795F808BD10B54FF4007198
:101B20007F48FFF790F8022001F04CFC4FF4007161
:101B30007B48FFF786F84FF4C86001F01DFC10BD2C
:101B400070B5002044682546A84770BD1FB575488C
:101B500002F06AF973480C3002F05DF971481030F8
:101B600002F049F96F48083002F067F96E496F4892
:101B700002F0AAF84FF4FA6002F091F9032002F0A3
:101B80009BF903A802F07CF99DF80F0000909DF8E6
:101B90000E309DF80D209DF80C1065A002F022FE7D
:101BA00003A802F05BF99DF80F0000909DF80E303D
:101BB0009DF80D209DF80C1062A002F013FE03A802
:101BC00002F044F99DF80F0000909DF80E309DF84A
:101BD0000D209DF80C1060A002F004FE5148001F7B
:101BE00090F821004F49091F91F820104D4A121F0B
:101BF000D27FCDE9002102904A48001F837F427FB7
:101C0000017F5AA002F0EEFD4648001F90F8220026
:101C100002064448001F90F8230002EB00424148AE
:101C2000001F90F8240002EB00223E48001F90F8AD
:101C30002500111855A002F0D5FD3A48001F90F874
:101C40002700384A121F92F8262000EB022153A0E9
:101C500002F0C8FD3348001F90F82900314A121FD6
:101C600092F8282000EB022150A002F0BBFD1FBD1E
:101C700086B053A103C9CDE9040153A000680390C5
:101C800052A00068029052A00068019051A0006824
:101C900000902448001F0399C160029901610199D5
:101CA000416104994160BDF814100181009981617E
:101CB00000201C49091F81F83100012081F8320001
:101CC0000020A1F8330081F835000120887200213E
:101CD0001448001FC17206B0704710B53222114976
:101CE000091F3D48FFF7D1FD10BD70B50024002548
:101CF0000AE039496018FFF7A1FD384921F81500BD
:101D0000A01C84B2681C85B2322CF2D33222334933
:101D10000448001F02F01CFA70BD000000080140DA
:101D2000000C01408A040020340000202C00002018
:101D3000204950203A2025642E25642E25642E2526
:101D4000640D0A0020534E203A2025642E25642E6F
:101D500025642E25640D0A00204757203A2025646B
:101D60002E25642E25642E25640D0A00D0D0D5FEC4
:101D7000B1E0C2EB203A2025782C25782C25782C50
:101D800025782C25782C25780D0A000044544D42E6
:101D9000C6B5C2CA203A2025640D0A00B5F7C6B5FB
:101DA000C6B5C2CA203A2025640D0A004A545844D8
:101DB000CEDECFDFC6B5C2CA203A2025640D0A00A8
:101DC0000008DC1111110000C0A8016FFFFFFF0027
:101DD000C0A801010808080818F00108A60A002098
:101DE0002DE9F04104460026002512E0605DA05573
:101DF00025280CD1A91C605C01F0FFFA0746691C7C
:101E0000605C01F0FAFA07EB0010A055AD1C761CDF
:101E10006D1C605D0028E9D1A055BDE8F081FEB5DC
:101E200006460C46174640F2B451304602F0A9F976
:101E3000012C01D1AAA517E0022C01D1B7A513E00E
:101E4000032C01D1C4A50FE0042C01D1D1A50BE0D6
:101E5000052C01D1DE4D07E0062C01D1DDA503E004
:101E6000072C01D1DA4D50353A46E9A1684602F017
:101E7000C9FC2946304602F0DBF96946304602F0DB
:101E80008BF9E4A1304602F087F9FEBD70B5044637
:101E90000D46E2A1284602F08BF910B1092020700E
:101EA00074E0DFA1284602F083F920B9DEA12846BC
:101EB00002F07EF910B10120207067E0DCA1284615
:101EC00002F076F910B1022020705FE0DAA1284616
:101ED00002F06EF920B9DAA1284602F069F910B1D2
:101EE0000320207052E0D8A1284602F061F920B901
:101EF000D7A1284602F05CF910B10420207045E01B
:101F0000D5A1284602F054F910B1052020703DE01B
:101F1000D3A1284602F04CF920B9D3A1284602F0FB
:101F200047F910B10620207030E0D1A1284602F018
:101F30003FF910B10720207028E0CFA1284602F019
:101F400037F920B9CEA1284602F032F910B10820A5
:101F500020701BE0CCA1284602F02AF920B9CBA1C1
:101F6000284602F025F910B1032020700EE0C8A128
:101F7000284602F01DF920B9C7A1284602F018F939
:101F800010B10120207001E00020207070BD70B5FC
:101F900004460E46C2A1304602F054F9054615B972
:101FA0000020207070BDBFA1284602F026F920B1A4
:101FB000BDA1284602F021F938B901202070B8A14E
:101FC000002002F03FF9054625E0B8A1284602F0BE
:101FD00014F920B1B7A1284602F00FF938B9022050
:101FE0002070AFA1002002F02DF9054613E0B3A147
:101FF000284602F002F920B1B2A1284602F0FDF80D
:1020000038B985A1002002F01DF905460320207093
:1020100001E00020207015B900202070C2E7294699
:10202000A01C02F005F900BFBCE72DE9FE4F0546F4
:102030000F460024DFF89492A24600200090019001
:10204000029005B117B90020BDE8FE8F6B46A0A233
:10205000A0A1284601F072FA0A21684601F0E8F9C9
:1020600082466CA1284602F0A3F805462D1D0020EB
:1020700005F80A003946284602F09AF804002BD0E9
:10208000384602F0B3F8401C044497A1204602F001
:102090008FF806461EB9204602F0A8F806194FF040
:1020A0000008301B1FFA80F8B8F1000F10D0002094
:1020B00009F8080042462146484602F08BF8484697
:1020C000FFF78EFE20222B21484601F015FA05E08D
:1020D000002089F8000001E00020B5E74846B3E79A
:1020E000485454502F312E3120323030204F4B0D78
:1020F0000A436F6E74656E742D547970653A20745E
:102100006578742F68746D6C0D0A436F6E74656E1C
:10211000742D4C656E6774683A2000004854545022
:102120002F312E3120323030204F4B0D0A436F6E4D
:1021300074656E742D547970653A20696D616765B8
:102140002F6769660D0A436F6E74656E742D4C655A
:102150006E6774683A200000485454502F312E3175
:1021600020323030204F4B0D0A436F6E74656E7411
:102170002D547970653A20746578742F706C61699C
:102180006E0D0A436F6E74656E742D4C656E6774C8
:10219000683A2000485454502F312E3120323030CC
:1021A000204F4B0D0A436F6E74656E742D54797019
:1021B000653A20696D6167652F6A7065670D0A432E
:1021C0006F6E74656E742D4C656E6774683A20008E
:1021D00058550008485454502F312E312032303099
:1021E000204F4B0D0A436F6E74656E742D547970D9
:1021F000653A20766964656F2F6D7065670D0A43D7
:102200006F6E74656E742D4C656E6774683A20004D
:10221000256C64000D0A0D0A000000002E706C0091
:102220002E68746D6C0000002E68746D0000000054
:102230002E676966000000002E7465787400000047
:102240002E747874000000002E6A7065670000002C
:102250002E6A7067000000002E7377660000000091
:102260002E6D7065670000002E6D70670000000025
:102270002E706466000000002E6367690000000095
:102280002E434749000000002E6A73002E4A530077
:102290002E786D6C000000002E584D4C00000000A0
:1022A00020000000474554006765740048454144DC
:1022B000000000006865616400000000504F535446
:1022C00000000000706F737400000000F204002032
:1022D0000D0A0000436F6E74656E742D4C656E6759
:1022E00074683A2000000000260000000FB430B5EA
:1022F000A1B004469DF8C3009DF8C2109DF8C1200E
:102300009DF8C030CDE91D32CDE91F109DF8BF10FA
:102310009DF8BE209DF8BD009DF8BC3000EB032069
:102320009DF8BB309DF8BA5003EB0523CDE9193079
:10233000CDE91B219DF8B60001069DF8B70001EB21
:1023400000419DF8B80001EB00219DF8B90001445F
:102350009DF8B5009DF8B42025ABDB7FCDE91532A3
:10236000CDE9170125A8817F427F9DF8B00025ABFC
:10237000DB7CCDE91130CDE9132125A8817C427C9D
:102380009DF8A40025ABDB7DCDE90D30CDE90F2113
:1023900025A8827D407D9DF8A81025ABDB7BCDE98B
:1023A0000931CDE90B0225A8807B25A94A7B9DF840
:1023B000A01025AB5B7ACDE90531CDE9072025A832
:1023C000017AC07925AA927925AB5B79CDE90132F2
:1023D000CDE903019DF89800009025A8C37A9DF8E7
:1023E0009E20FE49204602F00DFA21B030BC5DF877
:1023F00014FBFEB505460C461646E078A1786278D7
:10240000CDE90021029023782A46F549304602F0B2
:10241000F9F9FEBD2DE9F04190B00546F1A1A81CE7
:10242000FFF703FE5FEA000803D0EF49404601F0E2
:10243000A7F8EEA1A81CFFF7F8FD5FEA000804D09A
:10244000E9490831404601F09BF8E9A1A81CFFF7D3
:10245000ECFD5FEA000804D0E349091D404601F0A5
:102460008FF8E4A1A81CFFF7E0FD5FEA000805D0A3
:10247000DD4A10320121404601F04DF9DFA1A81CD0
:10248000FFF7D3FD5FEA000805D0D74A16320221D4
:10249000404601F040F9DCA1A81CFFF7C6FD5FEA49
:1024A000000805D0D04A1A320321404601F033F922
:1024B000D7A1A81CFFF7B9FD5FEA000805D0CA4AFA
:1024C0001C320421404601F026F9D3A1A81CFFF7D5
:1024D000ACFD5FEA000825D0414608A801F0A8FE3F
:1024E00000241CE008A8005D0D2804D108A9601C88
:1024F000085C0A2802D008A8005D28B9062C01D182
:10250000012600E000260CE008A8005D402804DA5F
:1025100008A8005D303808A90855601CC4B2072C13
:10252000E0DB00BFC0A1A81CFFF77FFD5FEA000849
:1025300027D04146684601F07BFE00241EE01DF8CE
:1025400004000D2804D1601C1DF800000A2802D0E8
:102550001DF8040030B9062C02D1012E00D100E094
:1025600000260DE01DF80400402805DA1DF80400DF
:102570003038C0B20DF80400601CC4B2072CDEDB9A
:1025800000BFA6A1A81CFFF750FD5FEA000831D0EC
:1025900095480C3890F8300001281DD1404601F0D4
:1025A0001CF80746002F11DD022F07D006226946CE
:1025B00008A801F030FE48B9012E07D18A480C382E
:1025C0000899C0F82A10BDF82410C185002086495A
:1025D0000C3981F830000DE0404600F0FEFF002885
:1025E00005DD012080490C3981F8300002E010B08F
:1025F000BDE8F081FFF771FB00BFF8E72DE9F04F70
:10260000A1B081468A46202119A801F0BAFD002414
:10261000002540F2B451884801F0B3FDDFF81C8278
:10262000854E51463046FFF7B2FC307830B1012874
:1026300015D0022812D003287ED18BE07622804963
:10264000404601F085FD404601F0D0FD1FFA80FBB9
:102650005A464146484600F0D7FBABE000BFB71CE6
:1026600078A1384601F0C9FD48B179A1384601F09A
:10267000C4FD20B177A1384601F0BFFDC0BB40F6D4
:10268000E814224601214046FFF7C9FB404601F00D
:10269000ADFD1FFA80FB5A464146484600F0B4FBA8
:1026A000002522E0B4F5806F15D9484601F03FFCC3
:1026B000172802D021B0BDE8F08F61487830291882
:1026C0004FF48062484600F09FFB05F5806085B2BC
:1026D000A4F5806409E0A2B2594878302918484628
:1026E00000F092FB281985B2241B002CDAD130E0CF
:1026F000FFE75BA1384601F080FD50BB40F2B451CA
:102700004D4801F03EFD2A223749684601F020FD80
:10271000362235490C390BA801F01AFD46480BA9A1
:102720000EC9FFF7E3FD444801F060FD8346424BCC
:102730005A464E49404600E03BE002F063F840460E
:1027400001F054FD1FFA80FB5A464146484600F00E
:102750005BFB2FE019AB46A23DA1B01C00F0EEFEE2
:1027600044A119A801F049FD10BB3046FFF752FE05
:10277000314A1D490520FFF73CFE2F4801F036FD88
:1027800083462D4B5A463949404602F03BF84046B5
:1027900001F02CFD1FFA80FB5A464146484600F0E6
:1027A00033FB484600F01DFB01203549087081E7E6
:1027B00000E000BF00BF00BF7CE770B5012640F21B
:1027C000B4511E4801F0DDFC1C4D304601F0AFFB5A
:1027D000142863D059DC00287ED053E0EC55000863
:1027E00058570008697000009204002067770000C5
:1027F00073756200436F64650000000044544D42ED
:102800005F46726571000000464D5F46726571005B
:1028100053785F46726571004E65775F50617373E0
:10282000776F726400000000595F4E65775F5061FA
:102830007373776F726400000A0B0020BE100020D3
:10284000D45800082F696E6465782E68746D000096
:102850002F0000002F696E6465782E68746D6C001F
:102860002F77353530302E6A73000000386300084A
:1028700020000000636F6E6669672E636769000061
:1028800000000020132847D104E0172807D01C2897
:1028900042D125E0304600F009FA3EE03DE0304606
:1028A00001F03CFB10F0010F03D00121304601F094
:1028B00023FC304601F082FB041E10DD224629462F
:1028C000304600F00DFB04460020285529463046CE
:1028D000FFF794FE304600E017E000F082FA1CE0BB
:1028E000304601F06BFB041E0BDD224629463046C4
:1028F00000F0F6FA04460020285529463046FFF736
:102900007DFE304600F06DFA07E0002350220121E1
:10291000304600F06BF900E000BF00BF70BD2DE94C
:10292000F04FA1B081468A46202119A801F029FC68
:102930000024002540F2B451994801F022FCDFF850
:102940006482974E51463046FFF721FB307830B114
:10295000012815D0022812D003287DD18EE07622DE
:102960009149404601F0F4FB404601F03FFC1FFA5C
:1029700080FB5A464146484600F046FAB2E000BFA6
:10298000B71CAFF24011384601F037FC58B1AFF236
:102990004011384601F031FC28B1AFF248113846F9
:1029A00001F02BFCB0BB40F6B63422460121404674
:1029B000FFF735FA404601F019FC1FFA80FB5A4632
:1029C0004146484600F020FA002520E0B4F5806F2B
:1029D00014D9484601F0ABFA172802D021B0BDE85F
:1029E000F08F724829184FF48062484600F00CFAC4
:1029F00005F5806085B2A4F5806408E0A2B26B485A
:102A00002918484600F000FA281985B2241B002C2A
:102A1000DCD132E0FFE7AFF2B811384601F0EDFB50
:102A200058BB40F2B4515E4801F0ABFB2A2260492A
:102A3000684601F08DFB36225D490C390BA801F088
:102A400087FB57480BA90EC9FFF750FC544801F00B
:102A5000CDFB8346524B00E043E05A46534944398C
:102A6000404601F0CFFE404601F0C0FB1FFA80FB5C
:102A70005A464146484600F0C7F933E019ABAFF279
:102A80001022AFF23421B01C00F058FDAFF21C212F
:102A900019A801F0B2FB18BB3046FFF7BBFC404A57
:102AA00043490520FFF7A5FC3D4801F09FFB834605
:102AB0003B4B5A463D494439404601F0A3FE40464F
:102AC00001F094FB1FFA80FB5A464146484600F04D
:102AD0009BF9484600F085F90120364908707DE7EA
:102AE00000E000BF00BF00BF78E770B5012640F2EC
:102AF000B4512C4801F045FB2A4D304601F017FA3D
:102B000014280ED004DC002840D0132845D104E05E
:102B1000172807D01C2840D123E0304600F0C6F823
:102B20003CE03BE0304601F0F9F910F0010F03D032
:102B30000121304601F0E0FA304601F03FFA041E70
:102B40000EDD22462946304600F0CAF90446002030
:102B5000285529463046FFF7E2FE304600F041F99D
:102B60001CE0304601F02AFA041E0BDD22462946FD
:102B7000304600F0B5F90446002028552946304675
:102B8000FFF7CDFE304600F02CF907E0002350227D
:102B90000121304600F02AF800E000BF00BF70BD00
:102BA0000A0B0020BE100020D45800087C630008E7
:102BB000920400200000002010B504464FF48471F8
:102BC00001EB4410102100F0F2FF00BF4FF48471BC
:102BD00001EB441001F004F80028F7D14FF4027122
:102BE00001EB4410FF2100F0E2FF10BD2DE9F041A0
:102BF00004460D461646984605F00F0001280FD0F2
:102C000005F00F0002280BD005F00F00032807D0B5
:102C100005F00F00042803D005F00F00052841D16E
:102C20002046FFF7C9FF45EA0801082202EB4410DD
:102C300000F0BDFF76B1310A4FF4816202EB44101F
:102C400000F0B5FFF1B24FF4A16202EB441000F0C6
:102C5000AEFF15E0FE480088401CFD4908800A468A
:102C60001288110A4FF4816202EB441000F09FFFBA
:102C7000F74A11784FF4A16202EB441000F097FF7D
:102C80004FF4847101EB4410012100F090FF00BF6C
:102C90004FF4847101EB441000F0A2FF0028F7D13B
:102CA000012700E000273846BDE8F08170B50446F2
:102CB0004FF4427101EB441000F092FF132811D140
:102CC0004FF4847101EB4410022100F070FF00BF4B
:102CD0004FF4847101EB441000F082FF0028F7D11B
:102CE000012500E00025284670BD2DE9F04105468C
:102CF0000C4616462078FF2808D16078FF2805D1B9
:102D0000A078FF2802D1E078FF2808D0207828B9E1
:102D1000607818B9A07808B9E07800B10EB900273A
:102D20005CE00127217840F6084202EB451000F0F4
:102D30003EFF617840F6085202EB451000F037FF85
:102D4000A17840F6086202EB451000F030FFE17810
:102D500040F6087202EB451000F029FF310A41F2FB
:102D6000080202EB451000F022FFF1B241F2081216
:102D700002EB451000F01BFF4FF4847101EB45108E
:102D8000042100F014FF00BF4FF4847101EB4510E3
:102D900000F026FF0028F7D117E04FF4427101EB55
:102DA000451000F01DFF172800D116E0284601F05D
:102DB000B5F810F0080F08D04FF4027101EB451080
:102DC000082100F0F4FE002707E04FF4427101EB08
:102DD000451000F005FF1528DFD100BF3846BDE8DB
:102DE000F08110B504464FF4847101EB44100821C2
:102DF00000F0DDFE00BF4FF4847101EB441000F0E1
:102E0000EFFE0028F7D110BD2DE9F04704468846B3
:102E1000164600250027A946204600F0B3FEB04222
:102E200004DA204600F0AEFE074600E0374600BF59
:102E3000204601F085F881464FF4427101EB4410C1
:102E400000F0CEFE0546172D03D01C2D01D0002723
:102E500001E0B945ECDB00BF3A464146204601F0AF
:102E6000D7F84FF4847101EB4410202100F09FFE4D
:102E700000BF4FF4847101EB441000F0B1FE002854
:102E8000F7D113E04FF4427101EB441000F0A8FEBB
:102E90000546172D0AD01C2D08D06EA001F0A2FC0B
:102EA0002046FFF789FE0020BDE8F0874FF402714D
:102EB00001EB441000F094FE00F010001028E1D166
:102EC0004FF4027101EB4410102100F070FE4FF43A
:102ED000027101EB4410102100F069FE3846E3E76F
:102EE0002DE9F04104460E4615460027002D15DD5C
:102EF0002A463146204601F0C5F84FF4847101EBB3
:102F00004410402100F053FE00BF4FF4847101EBE8
:102F1000441000F065FE0028F7D12F463846BDE882
:102F2000F0812DE9F0470446894616461D46089F64
:102F30004FF00008204600F025FEB04204DA20469B
:102F400000F020FE804600E0B046287828B9687876
:102F500018B9A87808B9E87800B117B94FF0000897
:102F600063E0297840F6084202EB441000F01FFEAF
:102F7000697840F6085202EB441000F018FEA97878
:102F800040F6086202EB441000F011FEE97840F6CA
:102F9000087202EB441000F00AFE390A41F20802FE
:102FA00002EB441000F003FEF9B241F2081202EB0A
:102FB000441000F0FCFD42464946204601F028F846
:102FC0004FF4847101EB4410202100F0F0FD00BFAC
:102FD0004FF4847101EB441000F002FE0028F7D199
:102FE00012E04FF4027101EB441000F0F9FD10F013
:102FF000080F09D04FF4027101EB4410182100F0C2
:10300000D6FD0020BDE8F0874FF4027101EB4410BB
:1030100000F0E6FD00F010001028E2D14FF402713C
:1030200001EB4410102100F0C2FD4046EAE72DE913
:10303000FC5F05468A4691461E46DDF83080002733
:103040000024A346B9F1000F71DD42F608010BE040
:103050003C00002053454E445F4F4B2050726F623E
:103060006C656D21210D0A0001EB451000F0B8FDE3
:10307000044642F6081101EB451000F0B1FD00EBEB
:10308000042084B2200200EB451000F1180B082147
:1030900001EB451000F0A4FD00F00700022804D069
:1030A000032845D0042878D178E00822694658469C
:1030B00000F0D7FD04F1080084B29DF800003070E4
:1030C0009DF8010070709DF80200B0709DF803003B
:1030D000F0709DF80400A8F800009DF8050098F82D
:1030E000001000EB0120A8F800009DF806709DF884
:1030F000070000EB072087B2200200EB451000F12B
:10310000180B3A465146584600F0ABFDE01984B220
:10311000210A42F6080202EB451000F048FDE1B238
:1031200042F6081202EB451000F041FD6AE07AE039
:1031300006226946584600F094FDA01D84B29DF811
:10314000000030709DF8010070709DF80200B070B2
:103150009DF80300F0709DF804709DF8050000EBE9
:10316000072087B2200200EB451000F1180B3A4609
:103170005146584600F075FDE01984B2210A42F626
:10318000080202EB451000F012FDE1B242F608120F
:1031900002EB451000F00BFD34E032E002226946FC
:1031A000584600F05EFDA01C84B29DF800709DF8AA
:1031B000010000EB0720801E87B240F2EA508742F0
:1031C00004DD1AA001F00EFB00BFFEE7200200EBB9
:1031D000451000F1180B3A465146584600F041FDA3
:1031E000E01984B2210A42F6080202EB451000F011
:1031F000DEFCE1B242F6081202EB451000F0D7FC0B
:1032000000E000BF00BF4FF4847101EB4510402186
:1032100000F0CDFC00BF4FF4847101EB451000F0CD
:10322000DFFC0028F7D13846BDE8FC9F646174617B
:103230005F6C656E206F76657220313531340D0A12
:103240000000000000B587B001218803FDF711FFE1
:1032500001210920FDF700FF4FF48050ADF8040074
:1032600003208DF8060010208DF8070001A93248D0
:10327000FDF73CFC4FF480512F48FDF7E2FC4FF482
:103280006040ADF8040003208DF8060018208DF88A
:10329000070001A92848FDF729FC0020ADF8080027
:1032A0004FF48270ADF80A000020ADF80C00ADF8C4
:1032B0000E00ADF810004FF40070ADF812000820B9
:1032C000ADF814000020ADF816000720ADF8180086
:1032D00002A91A48FDF74EFF01211848FDF7EFFF3C
:1032E00007B000BD10B504462CB94FF48051124808
:1032F000FDF7A9FC05E0012C03D121030E48FDF7E1
:10330000A0FC10BD10B5044600BF02210B48FEF71B
:103310005AF80028F9D021460848FEF701F800BF06
:1033200001210648FEF74FF80028F9D00348FDF7C1
:10333000F9FFC0B210BD0000000C01400038004091
:103340004FF0E021096921F004014FF0E022116102
:10335000C21700EB5272C2F3C702F84B1A7019463B
:10336000097801EB4102C2EBC1114FF6FF7202EA8C
:10337000C101F34A118070470146F14A12884A435D
:103380004FF0E0235A6100229A6101221A6100BFC6
:103390004FF0E022106910F0010F02D010F4803FCE
:1033A000F6D000224FF0E0231A619A61704710B501
:1033B000044604E04FF47A70FFF7DEFF641E002C31
:1033C000F8D110BD0146DD4A12784A434FF0E023A0
:1033D0005A6100229A6101221A6100BF4FF0E02277
:1033E000106910F0010F02D010F4803FF6D00022D7
:1033F0004FF0E0231A619A6170470146302905DBDE
:10340000392903DCA1F13000C0B27047612905DB26
:10341000662903DCA1F15700C0B2F6E7412905DBBC
:10342000462903DCA1F13700C0B2EEE70846ECE71D
:1034300030B502460B46002405E012F8010BFFF7F9
:10344000DCFF04FB030410780028F6D1A0B230BDE5
:1034500030B502460B46002405E012F8010BFFF7D9
:10346000CCFF04FB030410780028F6D1204630BDC1
:103470002DE9F04104460D461646701EC7B22022C3
:103480003146284600F076FE00BF0A2094FBF0F19A
:1034900000FB11403030C2B23846791ECFB22A54F8
:1034A0000A2094FBF0F080B2041EEEDCBDE8F0814F
:1034B0002DE9F04104460F46904626460CB120788F
:1034C00010B90020BDE8F0810BE03078FFF795FFE0
:1034D0000546002D03DBBD4201DA761C01E0002029
:1034E000F0E730780028F0D1B9B22046FFF7A0FF0E
:1034F000C8F800000120E5E710B50B46002104E004
:10350000445C9C4200D14254491C445C002CF7D1DD
:1035100010BD014600200A06100C40EA1120704739
:10352000014600200806C1F3072240EA0240C1F329
:10353000074240EA022040EA116070472DE9F04757
:1035400081460E4617461D463146484600F030FE7D
:103550000446304600F04AFE04443946204600F056
:1035600027FE8246AAEB04001FFA80F84246214655
:10357000284600F02FFE002005F80800BDE8F0877F
:103580002DE9F04188B006460F463146684600F006
:103590004FFE6C4600251BE06AA1204600F052FE5B
:1035A00004462078302809D16078782806D1102187
:1035B000A01CFFF73DFF00F0FF0805E00A212046B0
:1035C000FFF736FF00F0FF0807F8058000246D1CA8
:1035D000042DE1DB08B0BDE8F081F0B589B0064606
:1035E0000027314601A800F023FE002400BF01A8F7
:1035F000005D0D2804D101A9601C085C0A2802D0D6
:1036000001A8005D80BB002509E001A8415D4E488E
:10361000405D814201D1781CC7B2681CC5B2062D3D
:10362000F3DB062F04D1062C02D1012009B0F0BD36
:103630009DF80400072818D19DF80500062814D12C
:103640009DF80600052810D19DF8070009280CD127
:103650009DF80800092808D19DF80900072804D121
:10366000062C02D10220E1E701E00020DEE701A8FC
:10367000005D402805DA01A8005D303801A9085531
:1036800004E001A8005D373801A90855601CC4B2E8
:10369000ADE72DE9F04188B004468846174600267C
:1036A0002146684600F0C4FD002500BFB8F1020FB6
:1036B00017D1605D0D2803D1681C205C0A2801D059
:1036C000605D38B9300E3870300C7870300AB870E0
:1036D000FE701CE0605D303806EB860100EB4106B1
:1036E00012E0605D0D2803D1681C205C0A2801D01F
:1036F000605D18B9300A38707E7008E0605D30385F
:1037000006EB860100EB4106681CC5B2CEE700BFA0
:1037100008B0BDE8F0812DE9F04188B006460F46BB
:1037200090463146684600F083FD012F0ED0022FEF
:1037300044D0032F48D0042F52D14BE03E0000204C
:10374000400000202E000000B004002000240025CE
:1037500031E01DF80400402806DA1DF80400303876
:10376000C0B20DF8040005E01DF804003738C0B2FF
:103770000DF80400601C1DF80000402808DA601CE9
:103780001DF800003038C1B2601C0DF8001007E0D1
:10379000601C1DF800003738C1B2601C0DF8001025
:1037A000601C1DF800001DF8041000EB011008F863
:1037B0000500A41C6D1C0C2CCBDB12E042463946E4
:1037C0006846FFF766FF0CE0424639466846FFF759
:1037D00060FF06E0424639466846FFF75AFF00E0C0
:1037E00000BF00BF08B0BDE8F0811CB50446202131
:1037F0009A4800F0C6FCE0B2C4F30721220EC4F3DD
:103800000743CDE9001096A1944800F0FBFF9348D0
:103810001CBD1CB504461021944800F0B2FCE0B277
:10382000C4F30721220EC4F30743CDE9001090A191
:103830008E4800F0C7FF8D481CBD70B58EB00546A0
:103840006C462946684600F0F3FC002629E0AFF2FA
:103850000C11204600F0F6FC044614B900200EB00E
:1038600070BD207830280AD16078782807D10DAA59
:103870001021A01CFFF71CFE48B90020EFE70DAA9D
:103880000A212046FFF714FE08B90020E7E70D984B
:10389000002802DB0D98FF2801DD0020DFE700246F
:1038A000761C042ED3DB0120D9E7F0B58FB0064695
:1038B0000F4601AC314601A800F0BAFC00252BE010
:1038C000AFF28011204600F0BDFC044614B9002080
:1038D0000FB0F0BD207830280AD16078782807D161
:1038E0000EAA1021A01CFFF7E3FD48B90020EFE766
:1038F0000EAA0A212046FFF7DBFD08B90020E7E702
:103900000E9878550E98002802DB0E98FF2801DDEE
:103910000020DDE700246D1C042DD1DB0120D7E75A
:1039200070B506460024002500BF09E0240240F6D9
:10393000084101EB4611481900F052F904446D1C8E
:10394000042DF3DB204670BD70B5044641F208013A
:1039500001EB441000F044F905464FF6FF7000EA11
:10396000052541F2080101EB4411481C00F038F92B
:10397000284485B2284670BD00B503461846FFF7B7
:10398000C8FD00BD00B503461846FFF7C9FD00BDE0
:1039900010B504462046FFF7EFFF10BD10B50446F2
:1039A0002046FFF7EFFF10BDF1B500246D4600BFC4
:1039B00015E004F5A06000F013F9295D00EA0107A5
:1039C00004F5706000F00CF9064604F5A06000F004
:1039D00007F90640B74201D00120F8BD641C042C51
:1039E000E7DB0020F9E770B506460D46032D00DD44
:1039F00000252C4608E0204600F099FAB04201D19B
:103A0000204670BD601CC4B2082CF4DB0820F8E727
:103A1000F0B502460D46C5F34F06002400210EE026
:103A200012F811304FF6FF7707EA0323012707EB5F
:103A30004107D75D1F44BBB21C444F1CB9B2B14211
:103A4000EEDB15F0010F03D012F8113004EB032464
:103A5000A0B200EB1447FF43B8B2F0BD72160020CD
:103A600025642E25642E25642E25640092160020E0
:103A7000253033642E253033642E253033642E25D3
:103A80003033640000B585B0012144F20500FDF734
:103A9000E3FA18208DF803004FF40070ADF8000031
:103AA00003208DF8020069462E48FDF71FF8042018
:103AB0008DF803000002ADF8000069462948FDF7C3
:103AC00015F84FF4E13001900020ADF80800ADF892
:103AD0000A00ADF80C00ADF810000C20ADF80E0097
:103AE000012240F225512048FDF77FFD01A91E4823
:103AF000FDF7E3FC01211C48FDF76BFD05B000BD9F
:103B000070B504460D46E1B21748FDF7CFFD00BF82
:103B100080211548FDF738FE0028F9D0204670BDF9
:103B200010B5044621461048FDF7C0FD00BF8021B6
:103B30000D48FDF729FE0028F9D010BD10B5044648
:103B40000BE014F8011B0848FDF7B0FD00BF802111
:103B50000548FDF719FE0028F9D020780028F0D19B
:103B600010BD000000080140003801400146FE4839
:103B7000405C7047FC4A115470470146FB4830F8DE
:103B8000110070470146FA4830F81100704710B52F
:103B90000020FFF7A7FB10BD10B50120FFF7A2FB27
:103BA00010BD10B504462046FFF7ACFB10BD70B544
:103BB00004460D46FFF7EBFFC4F30740FFF7F1FFA4
:103BC000C4F30720FFF7EDFF04F0F801091DC8B2A8
:103BD000FFF7E7FF2846FFF7E4FFFFF7DDFF70BDC3
:103BE00070B504460025FFF7D2FFC4F30740FFF786
:103BF000D8FFC4F30720FFF7D4FF04F0F800FFF765
:103C0000D0FF0020FFF7CDFF0546FFF7C5FF284690
:103C100070BD2DE9F04104460F461546002615B942
:103C2000D4A000F0DFFDFFF7B2FFC4F30740FFF7B9
:103C3000B8FFC4F30720FFF7B4FF04F0F801091D33
:103C4000C8B2FFF7AEFF002604E0B85DFFF7A9FF9A
:103C5000701C86B2AE42F8DBFFF79EFF2846BDE837
:103C6000F0812DE9F04104460F461546002615B9AE
:103C7000C0A000F0B7FDFFF78AFFC4F30740FFF7CD
:103C800090FFC4F30720FFF78CFF04F0F800FFF764
:103C900088FF002605E00020FFF783FFB855701C61
:103CA00086B2AE42F7DBFFF777FF2846BDE8F0812A
:103CB00010B5044621460020FFF779FF10BD10B56E
:103CC0008020FFF7F5FF10BD2DE9F04105460E46B7
:103CD0000027B846002489E0295D41F6087202EB0E
:103CE0004410FFF764FF315D41F6086202EB4410B7
:103CF000FFF75DFF00209E4921F814009B4921F841
:103D00001400B7F5804F32DC285D042816D004DC9F
:103D1000012807D0022823D10AE0082814D010284F
:103D20001ED117E04FF48060914921F814001DE086
:103D30004FF400608E4921F8140017E04FF48050D2
:103D40008B4921F8140011E04FF40050884921F804
:103D500014000BE04FF48040854921F8140005E081
:103D60004FF40060814921F8140000BF00BFB8F58E
:103D7000804F32DC305D042816D004DC012807D0E7
:103D8000022823D10AE0082814D010281ED117E0F9
:103D90004FF48060754921F814001DE04FF4006075
:103DA000724921F8140017E04FF480506F4921F850
:103DB000140011E04FF400506C4921F814000BE09E
:103DC0004FF48040694921F8140005E04FF4006089
:103DD000664921F8140000BF00BF654830F81400A0
:103DE0000744624830F814008044641C082CFFF635
:103DF00073AFBDE8F08110B504460422214690015E
:103E0000FFF707FF10BD10B50446042221469001BC
:103E1000FFF727FF10BD10B50446042221464FF4DA
:103E2000A060FFF7F6FE10BD10B50446062221463D
:103E30004FF41060FFF7EDFE10BD10B504460422EC
:103E400021464FF47060FFF7E4FE10BD10B5044644
:103E5000042221469001FFF704FF10BD10B504466F
:103E6000042221464FF4A060FFF7FBFE10BD10B501
:103E70000446062221464FF41060FFF7F2FE10BD03
:103E800010B50446042221464FF47060FFF7E9FEA6
:103E900010BD10B54FF4A850FFF7A2FE10BD10B52D
:103EA0000446210A4FF4C850FFF781FEE1B24FF4F7
:103EB000D050FFF77CFE10BD10B5044621464FF4EC
:103EC000D850FFF774FE10BD70B50446FFF7E1FF50
:103ED00060EA0400C5B229464FF4A850FFF767FE18
:103EE00070BD70B504460D46290A41F2082202EB66
:103EF0004410FFF75CFEE9B241F2083202EB4410D5
:103F0000FFF755FE70BD70B504460D4641F20861DD
:103F100001EB44102946FFF74AFE70BD10B5044678
:103F20004FF4027101EB4410FFF75AFE10BD10B5BB
:103F300004464FF4427101EB4410FFF751FE10BDEF
:103F400070B504460025002600BF42F2080101EBCF
:103F50004410FFF745FE064642F2081101EB4410FB
:103F6000FFF73EFE12E0000042000020B2160020E3
:103F7000A2160020556E6578706563746564322002
:103F80006C656E67746820300D0A000000EB062037
:103F900086B27EB142F2080101EB4410FFF720FE29
:103FA000054642F2081101EB4410FFF719FE00EB41
:103FB000052085B2B542C8D1284670BD70B504460B
:103FC0000025002600BF42F2086101EB4410FFF714
:103FD00007FE064642F2087101EB4410FFF700FEAF
:103FE00000EB062086B27EB142F2086101EB44107C
:103FF000FFF7F6FD054642F2087101EB4410FFF7AA
:10400000EFFD00EB052085B2B542DCD1284670BD3E
:104010002DE9F04104460F4616460025A8462EB964
:1040200021463BA000F0DEFBBDE8F08142F20841F2
:1040300001EB4410FFF7D4FD054642F2085101EBB5
:104040004410FFF7CDFD00EB052085B2280200EB00
:10405000441000F11008324639464046FFF7D9FDBA
:10406000A81985B2290A42F2084202EB4410FFF770
:104070009EFDE9B242F2085202EB4410FFF797FDB1
:1040800000BFD1E72DE9F04104460F461646002552
:10409000A8462EB9214626A000F0A4FBBDE8F08179
:1040A00042F6080101EB4410FFF79AFD054642F67F
:1040B000081101EB4410FFF793FD00EB052085B2DA
:1040C000280200EB441000F11808324639464046F9
:1040D000FFF7C7FDA81985B2290A42F6080202EBCC
:1040E0004410FFF764FDE9B242F6081202EB4410F7
:1040F000FFF75DFD00BFD1E770B504460D464FF4F4
:10410000027101EB44102946FFF751FD70BD00001C
:1041100043483A20256420556E6578706563746560
:104120006431206C656E67746820300D0A000000F1
:1041300043483A20256420556E6578706563746540
:104140006432206C656E67746820300D0A000000D0
:1041500040EA01039B0703D009E008C9121F08C009
:10416000042AFAD203E011F8013B00F8013B521E89
:10417000F9D27047D2B201E000F8012B491EFBD200
:1041800070470022F6E710B513460A460446194662
:10419000FFF7F0FF204610BD421E12F8013F002B32
:1041A000FBD111F8013B02F8013B002BF9D170471C
:1041B00030B505462A460B4612F8010B13F8014BA1
:1041C00008B1A042F8D01CB1002802D06D1CF1E764
:1041D000284630BD10B5044604E00B7800F8013BDA
:1041E00003B1491C521EF8D2204610BD421C10F8E3
:1041F000011B0029FBD1801A704710B5002200E096
:10420000521C835C8C5CA34201D1002BF8D1D8B244
:10421000E1B2401A10BD30B504460020034600E06C
:104220005B1C934203D2E05CCD5C401BF8D030BDF8
:10423000034611F8012B00F8012B002AF9D118468A
:104240007047000070B50F4D00B92868002412E0D7
:104250000A4602E09E4203D0521C1378002BF9D18B
:10426000DAB2224305D02BB124B1002100F8011BA2
:1042700004E00446401C0678002EE9D12860204660
:1042800070BD00004C00002030B50B4601460020F8
:104290002022012409E021FA02F59D4205D303FA08
:1042A00002F5491B04FA02F52844151EA2F1010289
:1042B000F1DC30BD2DE9F05F0546002092469B46BB
:1042C00088460646814640241BE02846414647462C
:1042D000224600F0F6F953465A46C01A914110D3CF
:1042E00011461846224600F0DDF92D1A67EB010849
:1042F0004F4622460120002100F0D4F917EB0009B7
:104300004E41201EA4F10104DFDC484631462A4616
:104310004346BDE8F09F2DE9FE4F804681EA030049
:10432000C00F0C46009021F0004123F00045B8EB8F
:104330000200A94105D24046214690461C460B4644
:10434000024623F00040104304D14046214603B00A
:10435000BDE8F08F270DC7F30A00C3F30A5102909E
:10436000401A0190402866DAC3F3130040F4801B22
:104370000098924620B10023D2EB030A63EB0B0BAB
:1043800001985946C0F14002504600F08BF90646AC
:104390000D4650465946019A00F0A3F910EB08006B
:1043A0006141002487EA115284EAE7731A433BD043
:1043B000009A3AB3019A012A4FEA075210DC001B17
:1043C00061EB02014FF0004202EA0752CDE90042E0
:1043D000001C41F5801132462B4600F0A1F9B6E7EA
:1043E000001B61EB0201001C41F5801300185B41CA
:1043F0002018A2F5001747EB030140EAD570B61963
:104400006D4111E06D084FEA360645EAC0754FEA86
:104410000752001B61EB0201001C41F580114908A5
:104420004FEA30000019514132462B4603B0BDE837
:10443000F04F00F068B90098012240000023D0EB53
:10444000020263EBE073009821464FEAE074B8EB98
:10445000000061EB0401E9E783F000435BE781F0D2
:10446000004158E72DE9FE4F81EA030404F00044BF
:1044700021F0004100944FF0000B23F0004350EA7C
:10448000010402D052EA030404D10020014603B023
:10449000BDE8F08FC3F30A54C1F30A552C44A4F2CB
:1044A000F3340194A0FB0254C1F3130141F48011D1
:1044B000C3F3130343F4801301FB024400FB034ED8
:1044C000840A970A44EA815447EA8357A4FB0768A1
:1044D00002958D0A05FB07854FEA932C04FB0C54CB
:1044E0002705029D4FEA065847EA1637B5EB08053F
:1044F0006EEB070C870E920E47EA811742EA831291
:10450000A7FB0201B6EB0B0164EB00042B0D43EAA1
:104510000C335E1844EB1C50DA465146E7FB0201AF
:10452000C5F313044FEA0B3343EA14534FEA043242
:10453000019C43EA0603A4F10C040294009CCDE91B
:1045400000B400F0EDF8A2E72DE9F04D81EA030494
:1045500004F0004B21F0004514464FF0000A23F010
:10456000004150EA050220D054EA01021DD0C5F3F3
:104570000A570246C5F31303C1F31300C1F30A56E9
:1045800040F4801543F48013A7EB0608101BD646B1
:1045900008F2FD3873EB050002D308F1010801E0D1
:1045A00092185B41B8F1000F03DA00200146BDE824
:1045B000F08D00204FF48011064684460EE0171B54
:1045C00073EB050705D3121B63EB050306434CEAA7
:1045D000010C49084FEA300092185B4150EA01078C
:1045E000EDD152EA030012D082EA040083EA050109
:1045F000084303D100224FF0004308E0101BAB41F9
:1046000002D20122002302E06FF0010253101AEBE4
:1046100006004CEB085110EB0A0041EB0B01BDE822
:10462000F04D00F070B8C1F30A52C1F3130140F22B
:10463000FF3341F480119A4202DA002001467047AC
:1046400040F233439A42A2F2334202DC524200F07B
:1046500038B800F027B8000030B5002904DB4FF06F
:104660000044404264EB0101002B04DB4FF00044A6
:10467000524264EB0303994208BF904230BD0000F0
:10468000064C074D06E0E06840F0010394E807009F
:1046900098471034AC42F6D3FBF74EFD346F000858
:1046A000546F0008202A04DB203A00FA02F10020AF
:1046B00070479140C2F1200320FA03F31943904060
:1046C0007047202A04DB203A21FA02F000217047CB
:1046D00021FA02F3D040C2F120029140084319466A
:1046E0007047202A06DBCB17203A41FA02F043EA52
:1046F000E07306E041FA02F3D040C2F1200291409B
:1047000008431946704710B5002B08DA401C41F1E8
:10471000000192185B411A4301D120F0010010BD45
:104720002DE9F04D92469B4611B1B1FA81F202E0BB
:10473000B0FA80F220329046FFF7B4FF04460F46ED
:1047400040EA0A0041EA0B0153465A46084303D1A6
:1047500020463946BDE8F08D114653EA010015D0D8
:10476000C8F140025046FFF7ACFF05460E465046E2
:1047700059464246FFF796FF084301D0012000E06A
:104780000020054346EAE0762C4337430A984FEA77
:104790004453A0EB08004FEAD4240A304FF0000243
:1047A00044EA47544FEAD72502D500200146D1E715
:1047B000010510196941DDE9084500196941BDE8A5
:1047C000F04DA0E70FB4054B10B503A9044A0298B9
:1047D00000F0EEFA10BC5DF814FB0000013B00088D
:1047E000500000200FB4054B10B503A9044A0298ED
:1047F00000F0DAF810BC5DF814FB0000013B000883
:10480000500000200FB4084B10B504A902AA039869
:1048100000F0CAF8044602A9002000F097FE2046E6
:1048200010BC5DF814FB00004D55000802E008C8FC
:10483000121F08C1002AFAD170477047002001E01A
:1048400001C1121F002AFBD1704700002DE9FF5F54
:10485000DDE90220010DDDF838B0024310D10F98D8
:1048600001244CA2012808D0002100980F9BC0E928
:104870000021C0E90243BDE8FF9F6FEA0B01F4E7A6
:10488000A1F2FF3144F6105041430D140F98012856
:104890000ED0A5EB0B00401C4FF000043E4EDFF89D
:1048A000FC90B0F1000AA04605DACAF1000717E053
:1048B000CBF10000F0E7074612E0F80707D02246E8
:1048C000334640464946FFF7CDFD8046894622469D
:1048D000334610461946FFF7C5FD04460E467F10C5
:1048E000002FEAD1DDE90201BAF1000F42464B4642
:1048F00002DAFFF7B7FD01E0FFF726FE04460E4699
:104900000022274BFFF7A8FE03D84FF0FF300146E7
:1049100007E00022234B20463146FFF7FCFCFFF75F
:1049200082FE102409E0002C0ADB0A220023FFF794
:10493000C1FC019B30321A55641E50EA0102F2D1CB
:10494000641C019AC4F1110314440F9A012A09D07E
:104950000122084301D15B450FDD4FF0000205F154
:1049600001050DE0084303D1A3EB0B056D1E09E023
:1049700000204FF0110B0F9088E701DA00226D1E26
:10498000002A83D000980F99C0E90231C0E90045A0
:1049900071E7000030000000000024400000F03FFC
:1049A0000000F0430000E03F2DE9FF4F8DB00F46BF
:1049B00005460026DEE1252874D100246D1CF1494E
:1049C000A246A14601222B78203B02FA03F00842BE
:1049D00002D004436D1CF6E728782A2810D06FF027
:1049E0002F022878A0F13001092915D80AEB8A0195
:1049F00002EB410144F0020400EB010A6D1CF0E7F8
:104A000057F804ABBAF1000F03DA44F40054CAF1CA
:104A1000000A44F002046D1C28782E2817D115F8DE
:104A2000010F44F004042A280ED06FF02F022878DA
:104A3000A0F1300109290AD809EB890102EB4101F3
:104A400000EB01096D1CF2E757F8049B6D1C2878F8
:104A50006C280FD006DC4C2817D068280DD06A28A7
:104A600014D104E0742810D07A280FD10DE044F45A
:104A700000140AE044F4801401E044F4401469781E
:104A8000814202D16D1C04F580146D1C2A786E2AB7
:104A900020D00DDC632A33D005DC002A6FD0582AE1
:104AA00012D1A2E011E0642A6AD0692A0CD167E031
:104AB000732A2FD004DC6F2A6FD0702A04D199E0BA
:104AC000752A6BD0782A6AD01046DDE90F1290471C
:104AD000761C4EE1C4F30250022806D003280AD007
:104AE000042801CF0AD0066043E101CF4FEAE67106
:104AF000C0E900613DE101CF06803AE1067038E18E
:104B000017F8040B8DF8000000208DF80100EB462B
:104B1000012003E057F804BB4FF0FF3061074FF06E
:104B2000000102D40DE008F10101884649450FDA81
:104B30008045F8DB1BF808100029F4D108E008F1E3
:104B4000010188468142FADB1BF808100029F6D1E2
:104B5000DDE90F23AAEB08008146214600F0C6FCE0
:104B6000304400EB080604E0DDE90F121BF8010BEE
:104B70009047B8F10108F7D221464846F4E0FDE03D
:104B80000A21C4F302534FF0000B0891022B07D007
:104B900001CFC117032B09D00AE034E023E024E061
:104BA000FF1D27F00707F7E8020105E000B2C11773
:104BB000042B01D140B2C117002907DA4FF0000CD5
:104BC000D0EB0C006CEB01012D2302E0230504D592
:104BD0002B238DF82430012303E0E30701D02023A9
:104BE000F7E7984650E00A210EE010204FF0000B46
:104BF00008900CE010214FF0000B44F004044FF03B
:104C00000809089103E008214FF0000B0891C4F354
:104C10000253022B04D001CF0021032B06D006E063
:104C2000FF1D27F00707F7E8020103E080B2042B1D
:104C300000D1C0B24FF00008230725D5702A2AD032
:104C4000DDF820C08CF0100C5CEA0B0C09D150EAA6
:104C5000010306D030238DF824308DF8252002235F
:104C60009846DDF820C08CF0080C5CEA0B0C0BD1E8
:104C700050EA010301D1630706D530238DF82430B3
:104C80004FF00108A9F10109582A09D03EA20B9260
:104C900008AA0A9211E040238DF824300123DFE7AF
:104CA0003EA2F4E75B46089AFFF704FB0B9B9B5C74
:104CB0000A9AA2F101020A92137050EA0102F1D19C
:104CC0000A98ADEB000000F1200B600702D524F438
:104CD000803401E04FF00109D94502DDA9EB0B005A
:104CE00000E0002000EB0B0141440890AAEB010A10
:104CF000E00306D4DDE90F232146504600F0F6FB21
:104D00000644002008E009A911F80900DDE90F12A6
:104D10009047761C09F1010081464045F3DBE00332
:104D20000CD5DDE90F232146504600F0DFFB064499
:104D300004E0DDE90F1230209047761C0899481EE8
:104D400008900029F5DC08E00A980A990078491CC7
:104D50000A91DDE90F129047761CBBF10001ABF11F
:104D6000010BF1DC21465046DDE90F2300F098FBF2
:104D700006446D1C287800287FF41DAE11B0304623
:104D8000BDE8F08F09280100303132333435363731
:104D90003839616263646566000000003031323387
:104DA0003435363738394142434445460000000027
:104DB0002DE9FF4F95B09B4689460646002512E235
:104DC000252878D10024761CF94A2746012105942C
:104DD0003378203B01FA03F0104202D00443761CE2
:104DE000F6E730782A2811D06FF02F033078A0F141
:104DF0003002092A16D8059A44F0020402EB820216
:104E000003EB42021044761C0590EFE759F8042B9F
:104E10000592002A03DA504244F40054059044F00D
:104E20000204761C30782E2816D116F8010F44F0B3
:104E300004042A280DD06FF02F023078A0F130033F
:104E4000092B09D807EB870302EB4303C718761C2D
:104E5000F3E759F8047B761C30786C280FD006DC19
:104E60004C2817D068280DD06A2814D104E0742883
:104E700010D07A280FD10DE044F400140AE044F475
:104E8000801401E044F440147278824202D1761C0E
:104E900004F58014761C307866280BD013DC582873
:104EA00077D009DC002875D04528F6D04628F4D004
:104EB00047281AD19FE118E0632835D0642879D0BB
:104EC000652812D197E1702873D008DC6728F1D0EB
:104ED00069286FD06E280DD06F2806D1B5E07328F1
:104EE0002CD0752875D0782874D05A4617999047D9
:104EF0006D1C76E1C4F30250022809D003280DD0BE
:104F0000D9F8001004280DD00D6009F1040968E1FA
:104F1000D9F80010EA17C1E90052F6E7D9F80010F5
:104F20000D80F2E70D70F0E719F8041B8DF8001002
:104F300000208DF80100EA46012003E059F804AB97
:104F40004FF0FF3061074FF0000102D40DE008F18F
:104F500001018846B9420FDA8045F8DB1AF80810DB
:104F60000029F4D108E008F1010188468142FADB0A
:104F70001AF808100029F6D105985B46A0EB08073F
:104F800021463846179A00F0C9FA284400EB080574
:104F900007E04DE02BE10DE01AF8010B5A46179996
:104FA0009047B8F10108F7D25B4621463846179A78
:104FB00014E142E00A220092C4F302524FF0000AC8
:104FC000022A08D059F804CB032A4FEAEC710AD020
:104FD0000DE029E02AE009F1070121F00702F2E8DB
:104FE00002C1914609E00FFA8CFC4FEAEC71042AE9
:104FF00003D14FFA8CFC4FEAEC71002907DA0A461C
:105000000021DCF1000C61EB02012D2202E02205FF
:1050100004D52B228DF80420012203E0E20701D001
:105020002022F7E7904653E00A2102E010220DE02B
:1050300010214FF0000A00910BE010224FF0000AFF
:1050400044F004040827009203E008224FF0000A0D
:105050000092C4F30252022A05D059F804CB002171
:10506000032A08D009E009F1070121F00702F2E85C
:1050700002C1914605E01FFA8CFC042A01D10CF014
:10508000FF0C4FF00008220722D5702827D0009B84
:1050900083F0100353EA0A0309D15CEA010206D047
:1050A00030228DF804208DF8050002229046009BE6
:1050B00083F0080353EA0A030AD15CEA010201D132
:1050C000620705D530228DF804204FF001087F1EBD
:1050D000582809D037A003900EA8029013E0402270
:1050E0008DF804200122E1E737A0F4E7534660463B
:1050F000009AFFF7DFF884460398825C0298A0F1DB
:105100000100029002705CEA0100EFD1029806A94A
:10511000A1EB000000F1200A600702D524F48034DE
:1051200000E00127574502DDA7EB0A0000E0002060
:1051300000EB0A01009005984144A0EB01000590A6
:10514000E00306D45B462146179A059800F0E6F97D
:105150000544002706E001A85A46C05D179990470C
:105160006D1C7F1C4745F6DBE0030CD55B462146F2
:10517000179A059800F0D2F9054404E030205A4609
:10518000179990476D1C0099481E00900029F5DC86
:1051900008E0029802995A460078491C0291179932
:1051A00090476D1CBAF10001AAF1010AF1DC6BE134
:1051B00009280100303132333435363738396162ED
:1051C00063646566000000003031323334353637B1
:1051D00038394142434445460000000000F073F96D
:1051E000054406F10106307800287FF4E9AD19B0D6
:1051F0002846BDE8F08F620700D4062709F10702B0
:1052000022F0070CFCE80223E14603F000485FEAC5
:10521000080C02D00FF27C2C0DE05FEA045C02D592
:105220000FF2742C07E05FEAC47C02D00FF26C2C02
:1052300001E0AFF2700C4FF0FF3823F00043CDF8DF
:1052400050C065280CD006DC452809D046281DD062
:1052500047283ED13EE0662818D0672839D139E08A
:105260000021112F01DB112000E0781CCDE90001A5
:1052700006A90EA8FFF7EAFADDE90F010E9A0391DD
:105280000021009207F1010A04914EE04FF0004026
:105290000097CDE9011006A90EA8FFF7D7FADDE9BE
:1052A0000F0203920E9B11990022DDF80CA00093CF
:1052B000049219B907F1010100EB010AB7EB0A00EA
:1052C00004D4C0F1FF3007F1010A0490AAEB0700F3
:1052D000019046E0012F00DA01270021112F01DDA6
:1052E000112000E03846CDE9000106A90EA8FFF71D
:1052F000ADFADDE90F010E9A0391002104910092AD
:10530000BA4621070CD40399514500DA8A46BAF10E
:10531000010F05DD009AAAF10101515C302908D086
:10532000B84202DA10F1040F06DA0121CDE90110CA
:1053300017E0AAF10101E9E7002805DC049901441E
:105340000491AAEB000102E0411C514500DD8A46B0
:105350000499A0EB010000F1010001904FF0004022
:105360000290200704D40198504501DBCDF8048059
:1053700000208DF84F0002980DF14F07B0F1004F5B
:1053800025D02B200E9002984FF0020800280CDA4E
:10539000404202902D200E9007E00A210298FEF76D
:1053A00073FF3031029007F8011DB8F10001A8F138
:1053B0000108F2DC02980028EFD1791E0E980870DF
:1053C000307800F0200040F0450007F8020D12A8E8
:1053D000A0EB070000F107081498007800B1012045
:1053E00000EB0A01019801EBE07105984144A0EB44
:1053F0000100A0F101000590E00306D45B462146C0
:10540000179A059800F08AF805441498007820B19E
:105410005A461799904705F10105E00323D55B46ED
:105420002146179A059800F079F805441BE0049886
:10543000002807DBDDE90301884203DD0098405CBA
:10544000179901E0179930205A46904704986D1C2F
:10545000401C04900198401E019004D12E205A4611
:10546000179990476D1CBAF10001AAF1010ADEDC20
:1054700005E017F8010B5A46179990476D1CB8F1D3
:105480000001A8F10108F4DC5B462146179A059853
:10549000A4E600002D0000002B000000200000000A
:1054A0002DE9F041044600251E461746880405D420
:1054B00006E039462020B04705F10105641EF8D505
:1054C0002846BDE8F0812DE9F041044600251E463E
:1054D0001746880405D406E039462020B04705F178
:1054E0000105641EF8D52846BDE8F0812DE9F0419C
:1054F000044600251E469046C80301D5302700E02B
:105500002027880405D506E041463846B04705F116
:105510000105641EF8D52846BDE8F0812DE9F0416B
:10552000044600251E469046C80301D5302700E0FA
:105530002027880405D506E041463846B04705F1E6
:105540000105641EF8D52846BDE8F0810A68531CA1
:105550000B60107070470000485454502F312E31AA
:1055600020323030204F4B0D0A436F6E74656E74DD
:105570002D547970653A206170706C69636174694B
:105580006F6E2F782D73686F636B776176652D660C
:105590006C6173680D0A436F6E74656E742D4C6593
:1055A0006E6774683A200000485454502F312E31F1
:1055B00020323030204F4B0D0A436F6E74656E748D
:1055C0002D547970653A206170706C6963617469FB
:1055D0006F6E2F7064660D0A436F6E74656E742D66
:1055E0004C656E6774683A2000000000736574743F
:1055F000696E677343616C6C6261636B287B2276B2
:105600006572223A2225642E2564222C2020202037
:10561000202020202020202020202020226D6163B7
:10562000223A22253032583A253032583A25303243
:10563000583A253032583A253032583A25303258C7
:10564000222C20202020202020202020202020204C
:105650002020226970223A2225642E25642E25649A
:105660002E2564222C2020202020202020202020D5
:105670002020202020226777223A2225642E2564CC
:105680002E25642E2564222C20202020202020205E
:10569000202020202020202022737562223A2225FB
:1056A000642E25642E25642E2564222C09090909FF
:1056B00022436F6465223A22253032582530325811
:1056C000253032582530325825303258253032585E
:1056D000222C2020202020202020202020202020BC
:1056E00020202244544D425F46726571223A2225A1
:1056F00064222C2020202020202020202020202058
:1057000020202022464D5F46726571223A22256490
:10571000222C090909092253785F46726571223AE1
:10572000222564222C090909092250617373776FBD
:105730007264223A22256425642564256425642543
:1057400064222C2020202020202020202020202007
:105750002020207D293B00003C68746D6C3E3C6835
:105760006561643E3C7469746C653E69576562208E
:105770002D20436F6E66696775726174696F6E3C48
:105780002F7469746C653E3C736372697074206C2D
:10579000616E67756167653D6A61766173637269A1
:1057A00070743E6A3D25643B66756E6374696F6E06
:1057B0002066756E6328297B646F63756D656E74F2
:1057C0002E676574456C656D656E74427949642811
:1057D0002764656C617927292E696E6E6572546540
:1057E00078743D2720272B6A202B202720273B6A0F
:1057F0002D2D3B73657454696D656F75742827662C
:10580000756E632829272C31303030293B69662892
:105810006A3D3D30296C6F636174696F6E2E6872EA
:1058200065663D27687474703A2F2F25642E2564B1
:105830002E25642E25642F273B7D3C2F73637269D0
:1058400070743E3C2F686561643E3C626F647920F1
:105850006F6E6C6F61643D2766756E632829273E05
:10586000706C65617365207761697420666F722062
:1058700061207768696C652C20746865206D6F64A1
:10588000756C652077696C6C20626F6F7420696E2F
:105890003C7370616E207374796C653D27636F6C27
:1058A0006F723A7265643B272069643D2764656CBA
:1058B0006179273E3C2F7370616E3E207365636F84
:1058C0006E64732E3C2F626F64793E3C2F68746D5A
:1058D0006C3E0000485454502F312E31203430306B
:1058E000204F4B0D0A436F6E74656E742D547970A2
:1058F000653A20746578742F68746D6C0D0A436F77
:105900006E74656E742D4C656E6774683A20353020
:105910000D0A0D0A3C48544D4C3E0D0A3C424F4482
:10592000593E0D0A496E76616C6964207265717525
:105930006573742E0D0A3C2F424F44593E0D0A3CAC
:105940002F48544D4C3E0D0A000000003C21444FAE
:1059500043545950452068746D6C3E3C68746D6CBE
:105960003E3C686561643E3C7469746C653EC7E5A5
:10597000B3BFB5C4CDF8D2B3C5E4D6C33C2F746968
:10598000746C653E3C6D65746120687474702D653F
:10599000717569763D27436F6E74656E742D547909
:1059A00070652720636F6E74656E743D277465782B
:1059B000742F68746D6C3B20636861727365743D0D
:1059C000474232333132272F3E3C7374796C652065
:1059D000747970653D27746578742F637373273EFF
:1059E000626F6479207B746578742D616C69676E71
:1059F0003A6C6566743B206261636B67726F756EAB
:105A0000642D636F6C6F723A236330646565643B29
:105A1000666F6E742D66616D696C793A5665726455
:105A2000616E613B7D236D61696E207B6D61726784
:105A3000696E2D72696768743A6175746F3B6D6148
:105A40007267696E2D6C6566743A6175746F3B6D33
:105A5000617267696E2D746F703A333070783B7D78
:105A60006C6162656C7B646973706C61793A696EB4
:105A70006C696E652D626C6F636B3B7769647468EB
:105A80003A31353070783B7D236D61696E20683323
:105A90007B636F6C6F723A233636623366663B20E7
:105AA000746578742D6465636F726174696F6E3AA2
:105AB000756E6465726C696E653B7D3C2F7374799D
:105AC0006C653E3C7363726970743E66756E637498
:105AD000696F6E202428696429207B2072657475A3
